:1003BA00D2A100D2A00000000000C2A100000000EB
:0603CA0000C2A0000022A9
:1003D000C2A100D2A00000000000D2A100000000D5
:0103E00022FA
:1002D800E4FEEFA806088002C333D8FC30E704D256
:1002E800A18002C2A100D2A00000000000C2A00E9E
:1002F800BE08DF0000D2A10000D2A000000030A19B
:0B03080004C2008002D200C2A000006E
:0103130022C7
:10000300E4FFD2A1FE00C2A00000000000D2A000C5
:1000130000EF25E0FF30A1010F00000EBE08E6C28D
:03002300A000003A
:0100260022B7
:1003A200200104C2A18002D2A1000000D2A000005C
:0803B200000000C2A0000022BF
:0F03E1000A62C0F9A4B0999282F880900161007D
:10036200E4FDFCC3ED9FEC9E5015E4FBFA0BBB00D1
:0F037200010AEB64704A70F50DBD00010C80E4C8
:010381002259
:040027007590FF22AF
:06029400A3A3A3A3E0FDFB
:10029A007462BF02092DF8E6547FF58080052DF8B7
:1002AA00E6F580EF24FE600F146011146013240336
:1002BA0070125390FE800D5390FD80085390FB807E
:0E02CA00035390F77F027E00120362020027AA
:100314008F088D098B0A1203BAAF081202D8200085
:1003240002C322AF091202D8200002C322AF0A126C
:0C03340002D8200002C3221203D0D32202
:100382008F088D091203BAAF081202D8200002C3E7
:1003920022AF091202D8200002C3221203D0D322B4
:020340008F0824
:100342001203BAE50804FF1202D82000037F00223C
:0F0352001200038F09D2011203A21203D0AF09C8
:010361002279
:0D03F10075CBC575CA68D2CAD2ADD2AF2295
:03002B0002002EA2
:10002E00C0E0C0F0C083C082C0D075D000C000C098
:10003E0002C003C004C005C006C007C2CFAE21AFC8
:10004E00227C277D101202337E037FE8CFCDCFCEE8
:10005E00CCCE120233E4FCFD900010120288AE21C9
:10006E00AF227C037DE81202337E007F64CFCDCFBA
:10007E00CECCCE120233E4FCFD900014120288AEF8
:10008E0021AF227C007D641202337E007F0ACFCD29
:10009E00CFCECCCE120233E4FCFD900018120288B3
:1000AE00AE21AF227C007D0A120233AE04AF05E40E
:1000BE00FCFD90001C120288900010A3A3A3E0FD8B
:1000CE007F0112029A7F021202947F03120294A3FE
:1000DE00A3A3A3E0FD7F0412029AD007D006D00599
:1000EE00D004D003D002D000D0D0D082D083D0F0B4
:0300FE00D0E0321D
:100101001203F1120027E56114602514603A1460AE
:100111004F1460642404706F7D417F901203827FCD
:1001210090120340EF75F002A485F021F52280576B
:100131007D427F901203827F90120340EF75F0029F
:10014100A485F023F524803F7D437F901203827FB5
:1001510090120340EF75F002A485F025F526802763
:100161007D407F901203827F90120340EF75F00271
:10017100A485F027F528800FE529C313E52A13FB91
:100181007D407F90120314752901752AF47F647EE6
:10019100001203620561E561D39404500302010773
:0601A100E4F56102010714
:030000000201A753
:0C01A700787FE4F6D8FD75816B0201EE54
:10023300BC000BBE0029EF8DF084FFADF022E4CCAF
:10024300F875F008EF2FFFEE33FEEC33FCEE9DEC78
:10025300984005FCEE9DFE0FD5F0E9E4CEFD22EDBE
:10026300F8F5F0EE8420D21CFEADF075F008EF2F08
:10027300FFED33FD4007985006D5F0F222C398FDF9
:050283000FD5F0EA2296
:0C028800ECF0A3EDF0A3EEF0A3EFF022E9
:1001B300020101E493A3F8E493A34003F68001F260
:1001C30008DFF48029E493A3F85407240CC8C3334D
:1001D300C4540F4420C8834004F456800146F6DF1C
:1001E300E4800B01020408102040809003E1E47EC8
:1001F300019360BCA3FF543F30E509541FFEE49311
:10020300A360010ECF54C025E060A840B8E493A3D7
:10021300FAE493A3F8E493A3C8C582C8CAC583CA02
:10022300F0A3C8C582C8CAC583CADFE9DEE780BEBA
:0103F000000C
:00000001FF
