:100B4300B1A8BEAF00322E3300B5E7D1B900000023
:020B53000000A0
:10056100E4F509F50AF50BF50CF50DF50EF50FF5AA
:1005710010F511F512F513F514F51578167C00FD3B
:100581007BFF7A0B7951FE7F041202BB120B18120A
:1005910008EC120AB87BFF7A0B79437D06E4FF125F
:1005A10006837BFF7A0B79487D067F211207417B09
:1005B100FF7A0B794C7D067F44120683AF4AAE4920
:1005C1001209AAE4F512E5217003020674E4F5218B
:1005D100E522D394035003020671750C0085250DA5
:1005E100750E0085260FAE0CAF0D7C007D641203E5
:1005F1005BE50F2FFFE50E3EFE7D0A12036D8E0AAD
:100601008F0B854345854446850A43850B44C3E5E5
:10061100449546FFE5439545FEEF25E0F54AEE3367
:10062100F549AC0AAD0BEC1201317B6D7AE7796BC0
:10063100783F12002612016A8E108F11AD11AF0999
:10064100120957E50B6433450A7005F50A750B323B
:10065100AF0B7B007A007916751E00751F04120A14
:10066100807B007A0079167D067F621207410509B9
:10067100E4F5220512E512C3941E50030205C702D8
:0206810005BDB5
:100AFF00D3EF9400EE9400400F7D267C82DCFEDD68
:080B0F00FAEF1F70EB1E80E8F5
:010B170022BB
:100957008F1A8D1BE51AD394805047E51B9440509E
:1009670041E51B131313541F24B0FFE433FE120099
:1009770010E51AC4540F2410FFE433FE120010E5EB
:100987001A540FFF7E00120010E51B5407FF740175
:100997007E00A807088005C333CE33CED8F9FF12EF
:0309A7000AEE2233
:100A8000C3E51F9403E51E94005004E4020327EF1E
:100A900075F00A842430120327900001742E12038B
:100AA00039EF75F00A84E5F0243090000212033922
:080AB000900003E41203392257
:10040600BCC6C2CAC6B50035343332313039383786
:100416003635343332313000B5E70000F8101010AD
:1004260010FE11111111F9010F0000001F11111119
:1004360011FF111111111F000000D1B90106F802B8
:1004460002020202FE0202221A02020000007F409D
:10045600414141415F41414141414000B1A8202213
:1004660041FE800000FF01C2340834C201000808C2
:1004760008FF0809007F4141414945790000BEAFA8
:100486004040575555D555D55555555557404000BB
:100496004857F55557F05F401131EA242A312100BB
:1004A6003000F008040408F00000070810100807E0
:1004B600003100000404FC040400000008081F00CA
:1004C600000032000C142444840C00000E1010109E
:1004D600100F00330018048484443800000C1010F8
:1004E60010110E00340060A02424FC242400000116
:1004F600020C1F0000350098040404887000001FD9
:100506001111111010003600F088040404F80000E0
:1005160007081111090000370000007C8000000068
:100526000018101011161800380038448484443816
:1005360000000E111010110E003900804844448846
:10054600F000000F1010100807002E000C0C000021
:0B05560000000000000000000000009A
:0D00030033FE120010E51D2404FFE433FE5F
:10001000C2B2D2A5C2A6C2A700008F800000D2A79C
:0100200022BD
:100ADD00F583E5822CF582E43583F583E493FF7E7F
:010AED000008
:100AEE00C2B2D2A5D2A6C2A700008F800000D2A7A4
:010AFE0022D5
:1008EC00C2B3E4FF0FBF64FCC2B2D2B37FE27E009E
:1008FC00120010E4FF0FBF64FC7FA07E00120010FA
:10090C007FC01200107FA61200107FA41200107F6F
:10091C00A21200107FF81200107F011200107F81CC
:10092C001200107F231200107F251200107F2F124F
:10093C000010E4FF0FBF64FC7F407E001200107FAC
:0A094C00AF120010E4FF0FBF64FCBF
:01095600227E
:100AB800E4FDED24B012000C7F107E001200107FC0
:100AC80004120010E4FCE4FFFE120AEE0CBC80F6EF
:040AD8000DBD08DE6A
:010ADC0022F7
:040683008F1A8D1B22
:10068700E51BD3940740037F0022E51AD3948040EB
:10069700037F002274B0251BF51BFF7E001200109C
:1006A7001202E1700302073EAF1B7E00120010E545
:1006B7001AC4540FF51CE51A540FF51DE51C241038
:1006C700FFEE120003E4FD1202E1FFED75F022A434
:1006D700241EF582E43404F583E4936F7049900097
:1006E700011202FAFFED75F022A4241FF582E4340B
:1006F70004F583E4936F702FFCEC64107010E51B16
:10070700240112000CE51C2410FFE4120003ED7510
:10071700F022A42420F582E43404120ADD0CBC2064
:10072700D87410251AF51A0DED6404709A7402290D
:09073700F9E43AFA0206A77F0179
:010740002296
:040741008F1A8D1B63
:10074500E51BD3940740037F0022E51AD39480402C
:10075500037F002274B0251BF51BFF7E00120010DD
:100765001202E170030207ECAF1B7E00120010E5D8
:100775001AC4540FF51CE51A540FF51DE51C241079
:10078500FFEE33FE120010E51D12000AE4FD120211
:10079500E1FFED75F011A424A6F582E43404F58398
:1007A500E4936F7032FCEC64087013E51B240112AE
:1007B500000CE51C241012000CE51D12000AED7555
:1007C500F011A424A7F582E43404120ADD0CBC1050
:1007D500D57408251AF51A0DED640B70B17401294D
:0907E500F9E43AFA0207657F010C
:0107EE0022E8
:1009FD007F0BEF75F00A84E5F02430F549EF75F0C3
:100A0D000A842430F54AE4F54B1208EC7BFF7A0496
:100A1D007906E4FD7F281206837B007A0079497DF3
:100A2D0002E4FF1207417BFF7A04790D7D06E4FF96
:050A3D0012074180FEDC
:080B5500012200012100C10092
:100B1800759850758920758780758DF3758BF3D21C
:060B2800ACD2AFD28E2218
:0300230002087B55
:0D087B00C0E0C0D075D000C000C006C007AE
:10088800309856C298AF99200023BFAA06E5227077
:10089800028035BFAA12E522B4010DFE0522742399
:1008A8002EF8A607D2008031752200802CBFFF11D8
:1008B800AE22052274232EF8A607752101C20080F6
:1008C80018E522C3941F500CAE22052274232EF87B
:0908D800A6078005752200C2008C
:0B08E100D007D006D000D0D0D0E0320D
:060A42008B4E8A4F895023
:100A48007599AA3099FDC2997599AA3099FDC299EC
:100A5800E4FFEFC39D5018AB4EAA4FA9508F827583
:100A680083001202FAF5993099FDC2990F80E37557
:070A780099FF3099FDC299BE
:010A7F002254
:0409AA008E1A8F1BF7
:1009AE00751C00751D31C3E51A64809480500BC30D
:1009BE00E4951BF51BE4951AF51AD3E51B9432E565
:1009CE001A648094804012D2957F067E00120B2E00
:1009DE00C2957F067E00120B2EE51D151D700215A9
:0E09EE001CD3E51D9400E51C6480948050B875
:0109FC0022D8
:100B2E00EF1FAC0670011E4C600A7D027CEFDCFEEE
:040B3E00DDFC80EC6E
:010B42002290
:10002600EC4D6011E8497017ED33EC3304600DE4D4
:10003600FCFFFEFD22E933E8330470F80201D61214
:1000460001A158046009E4CC248150062850090215
:1000560001E02840030201DDC0E0EB4A7044B980AC
:1000660006D0E0FB0201CCEF4E701CBD8008EBFF12
:10007600EAFEE9FD80EBE98DF0A4FEE5F002010F52
:10008600E9CDF9EAFEEBFFEF89F0A4FCE5F0CE89B5
:10009600F0A42EFFE435F0CD89F0A42DFEE435F072
:1000A6008067EF4E7005BD80D780C3EF8BF0A4ACA0
:1000B600F0EE8BF0A42CFCE435F0F8EF8AF0A42CDB
:1000C600E5F038FCE433CB8DF0A42CFCE5F03BF8EE
:1000D600EE8AF0A42CFCE5F038F8E433CF89F0A4DE
:1000E6002CFCE5F038CF3400CE89F0A42FFFE5F0E4
:1000F6003EFEE433C98DF0A42EFEE5F039CD8AF03C
:10010600A42FFFE5F03EFEE43DFD33D0E0FB5007B3
:100116000BBB000F0201E0EC2CFCEF33FFEE33FECD
:06012600ED33FD0201B8FB
:10012C0075F020800E75F010800575F0087D007E4E
:10013C00007F003392D530D5031203A3EC3340106B
:10014C00EF33FFEE33FEED33FDEC33FCD5F0ED2257
:0E015C00E5F0247EA2D513CC92E7CDCEFF2293
:10016A00EDD2E7CD33EC3392D524814006E4FFFE8D
:10017A00FDFC22FCE4CFCECDCC24E0501174FF80EC
:10018A00EDC3CC13CCCD13CDCE13CECF13CF047089
:07019A00F030D5DE0203A3E3
:1001A100E9D2E7C933E833F892D5EDD2E7CD33ECA4
:0701B10033FC5002B2D5221D
:1001B800EC30E7100FBF000C0EBE00080DBD0004A8
:1001C8000BEB6014A2D5EB13FCED92E7FD2274FF54
:1001D800FCFDFEFF22E480F8A2D574FF13FC7D80AD
:0301E800E480EFC1
:030000000207EF05
:0C07EF00787FE4F6D8FD758150020836D2
:1001EB00E709F608DFFA8046E709F208DFFA803EF6
:1001FB0088828C83E709F0A3DFFA8032E309F608E3
:10020B00DFFA8078E309F208DFFA807088828C834A
:10021B00E309F0A3DFFA806489828A83E0A3F608FE
:10022B00DFFA805889828A83E0A3F208DFFA804CD8
:10023B0080D280FA80C680D4806980F280338010AF
:10024B0080A680EA809A80A880DA80E280CA803318
:10025B0089828A83ECFAE493A3C8C582C8CCC58390
:10026B00CCF0A3C8C582C8CCC583CCDFE9DEE78060
:10027B000D89828A83E493A3F608DFF9ECFAA9F0DF
:10028B00EDFB2289828A83ECFAE0A3C8C582C8CC35
:10029B00C583CCF0A3C8C582C8CCC583CCDFEADE4E
:1002AB00E880DB89828A83E493A3F208DFF980CCB0
:1002BB0088F0EF60010E4E60C388F0ED2402B404A9
:1002CB000050B9F582EB2402B4040050AF23234550
:0602DB00822390023B7338
:1002E100BB010689828A83E0225002E722BBFE021B
:0902F100E32289828A83E493224E
:1002FA00BB010CE58229F582E5833AF583E02250B9
:10030A0006E92582F8E622BBFE06E92582F8E22202
:0D031A00E58229F582E5833AF583E493221C
:10032700BB010689828A83F0225002F722BBFE01B5
:02033700F322AF
:10033900F8BB010DE58229F582E5833AF583E8F0FA
:10034900225006E92582C8F622BBFE05E92582C8A6
:02035900F2228E
:10035B00EF8DF0A4A8F0CF8CF0A428CE8DF0A42EB6
:02036B00FE2270
:10036D00C2D5EC30E709B2D5E4C39DFDE49CFCEEAB
:10037D0030E715B2D5E4C39FFFE49EFE1203B1C36F
:10038D00E49DFDE49CFC80031203B130D507C3E46A
:06039D009FFFE49EFE221A
:0E03A300C3E49FFFE49EFEE49DFDE49CFC226B
:1007FB00020561E493A3F8E493A34003F68001F2AE
:10080B0008DFF48029E493A3F85407240CC8C333FE
:10081B00C4540F4420C8834004F456800146F6DFCD
:10082B00E4800B0102040810204080900B55E47EFD
:10083B00019360BCA3FF543F30E509541FFEE493C2
:10084B00A360010ECF54C025E060A840B8E493A389
:10085B00FAE493A3F8E493A3C8C582C8CAC583CAB4
:10086B00F0A3C8C582C8CAC583CADFE9DEE780BE6C
:010B5D000097
:1003B100BC000BBE0029EF8DF084FFADF022E4CC30
:1003C100F875F008EF2FFFEE33FEEC33FCEE9DECF9
:1003D100984005FCEE9DFE0FD5F0E9E4CEFD22ED3F
:1003E100F8F5F0EE8420D21CFEADF075F008EF2F89
:1003F100FFED33FD4007985006D5F0F222C398FD7A
:050401000FD5F0EA2216
:00000001FF
