:0E091000021C0000021A00000118010119016A
:1005C000E4F580439003120A221209E61209B98E5B
:1005D0001C8F1DE54875F00A84FFE4FCFDFE9000C9
:1005E000101203A4E54875F00A84AFF0E4FCFDFEA8
:1005F0009000141203A4E54975F00A84FFE4FCFDA1
:10060000FE9000181203A4E54975F00A84AFF0E4E7
:10061000FCFDFE90001C1203A4900010A3A3A3E015
:10062000FDE4FF120710900014A3A3A3E0FD7F01D7
:10063000120710900018A3A3A3E0FD7F0212071079
:1006400090001CA3A3A3E0FD7F03120710900000FD
:10065000A3A3A3E0FD7F04120710900004A3A3A3AB
:10066000E0FD7F05120710900008A3A3A3E0FD7F23
:100670000612071090000CA3A3A3E0FD7F0712074A
:04068000100205CC93
:03002B00020423A9
:10042300C0E0C0F0C083C082C0D075D000C000C09F
:0D04330001C002C003C004C005C006C00720
:10044000C2CF7B007A00790812002E7B007A0079F7
:100450001012002EE50CB4010474038007E50CB4FF
:10046000020874FD2548F5488008E50CB4040375BE
:10047000481EE514B4010474038007E514B40208AF
:1004800074FD2549F5498008E514B4040375491441
:10049000E518B433047F0180027F00E518D394335C
:1004A00040047E0180027E00EE4F7003020574AEB0
:1004B0001CAF1D7C007D6412027E8F1EAE1CAF1D22
:1004C0007C007D6412027EAA04AB058B1FAE1CAFBC
:1004D0001D7C277D1012027E7E037FE8CFCDCFCE1C
:1004E000CCCE12027EE4FCFD9000001203A4AE1CF0
:1004F000AF1D7C037DE812027E7E007F64CFCDCFEE
:10050000CECCCE12027EE4FCFD9000041203A47D4A
:100510000A7C00AF03AE0212027EE4FCFD900008EC
:100520001203A4AE1CAF1D7C007D0A12027EAE0435
:10053000AF05E4FCFD90000C1203A4E47F0AFEFD6D
:10054000FC900004E0F8A3E0F9A3E0FAA3E0FB12BA
:100550000355AB07AA06900008A3A3E0FEA3E02B77
:10056000F51BEA3EF51A7B007A00791E7D0212081F
:1005700096751800E519B4C8047F0180027F00E574
:1005800019D394C840047E0180027E00EE4F6011B2
:10059000AF1BAE1A1207FAAF1BAE1A120848751934
:0505A00000051805191B
:1005A500D007D006D005D004D003D002D001D000AA
:0B05B500D0D0D082D083D0F0D0E03254
:1009D000D2A100D2A00000000000C2A100000000CF
:0609E00000C2A00000228D
:100A1100C2A100D2A00000000000D2A1000000008D
:010A210022B2
:1008D400E4FEEFA806088002C333D8FC30E704D254
:1008E400A18002C2A100D2A00000000000C2A00E9C
:1008F400BE08DF0000D2A10000D2A000000030A199
:0B09040004C2028002D202C2A0000068
:01090F0022C5
:10094000E4FFD2A1FE00C2A00000000000D2A0007F
:1009500000EF25E0FF30A1010F00000EBE08E6C247
:03096000A00000F4
:010963002271
:1009A100200304C2A18002D2A1000000D2A0000055
:0809B100000000C2A0000022BA
:100987001209D01208D4200202C322AF051208D4DC
:0A099700200202C322120A11D3222B
:100003001209D0EF04FF1208D42002037F0022124A
:0A0013000940D2031209A1120A11DC
:01001D0022C0
:1009B900E4FE7D417F901209877F90120003EF7555
:0609C900F002A4FFAEF0F5
:0109CF002205
:07091E00012100C101C1002D
:1009E600759850758920758780758DF3758BF3D250
:0609F600ACD2AFD28E224C
:0300230002078A47
:0D078A00C0E0C0D075D000C000C006C007A0
:10079700309855C298AF99200023BFAA06E521706B
:1007A700028034BFAA12E521B4010DFE052174228F
:1007B7002EF8A607D2008030752100802BBFFF10CE
:1007C700AE21052174222EF8A607D201C200801897
:1007D700E521C3941F500CAE21052174222EF8A6E3
:0807E700078005752100C20026
:0B07EF00D007D006D000D0D0D0E03200
:060896008B428A438944F5
:10089C007599AA3099FDC2997599AA3099FDC2999A
:1008AC00E4FFEFC39D5018AB42AA43A9448F827555
:1008BC00830012022FF5993099FDC2990F80E375D0
:0708CC0099FF3099FDC2996C
:0108D3002202
:0A0A2F003F065B4F666D7D077F6F89
:1009FC00EF1FAC0670011E4C600A7D027CEFDCFE22
:040A0C00DDFC80ECA1
:010A100022C3
:10071000EFB40800506990071DF8282873020735C8
:1007200002073B020741020749020751020759022B
:10073000076A020772C2A2C2A3800AD2A2C2A38021
:100740000CC2A2D2A3C2A48016D2A2D2A3C2A480F9
:1007500027C2A2C2A3D2A4801FD2A2C2A3D2A4ED58
:10076000900A2F934480F5808015C2A2D2A3D2A410
:100770008006D2A2D2A3D2A4ED900A2F93F5807F57
:0A078000017E001209FCE4F580225E
:0D0A220075CBD875CAF0D2CAD2ADD2AF22C2
:1009250008080000010000FF0A3908100000010056
:0409350000FF0A3F76
:060A3900A291E433FF224C
:060A3F00A292E433FF2245
:100964008B458A4689479000051203B01203E0EFD5
:10097400AB45AA46A9479000027002800274011296
:03098400025C22F0
:10002E008B428A438944120964AB42AA43A9449085
:10003E00000312022F14602F146045147003020087
:10004E00FC1470030201241470030201AC24056039
:10005E000302022E90000212022F9000037004047D
:10006E00020181E4020181AB42AA43A9449000023D
:10007E0012022F900003700474028001E4020181C9
:10008E00AB42AA43A94490000212022FFF701B122A
:10009E0002D3C39432E5F09400400F900003740332
:1000AE0012025C900004E40201D4EF70271202D316
:1000BE00C39432E5F09400501BAB42AA43A944E42A
:1000CE0075F0011202FEAB42AA43A94490000374DC
:1000DE0002020181AB42AA43A944E4F5F0120336B1
:1000EE00AB42AA43A9449000037404020181AB42BF
:1000FE00AA43A94490000212022F900003700B74C1
:10010E000312025C900004E48009E412025C900089
:10011E000474040201D4AB42AA43A9449000021213
:10012E00022FFF60271202D3C39419E5F09400400A
:10013E001BE4F5F0120336AB42AA43A94490000328
:10014E00E412025C900004740102022BEF602EABED
:10015E0042AA43A9441202D3C39419E5F094005065
:10016E001CE475F0011202FEAB42AA43A9449000B2
:10017E0003740412025C900004E402022BAB42AA48
:10018E0043A944E4F5F0120336AB42AA43A94490C6
:10019E000003740512025C900004E402022BAB42D1
:1001AE00AA43A94490000212022FFF70221202D31A
:1001BE00C39432E5F09400401690000374031202CB
:1001CE005C900004740112025CE4F5F0020336EF59
:1001DE00702D1202D3C39432E5F094005021AB423D
:1001EE00AA43A944E475F0011202FEAB42AA43A948
:1001FE0044900003740512025C900004E4801EAB70
:10020E0042AA43A944E4F5F0120336AB42AA43A92D
:10021E0044900003E412025C900004740212025C2B
:01022E0022AD
:0609390001482D01490AEE
:0407FA008E428F4359
:1007FE00754400754564D3E54395487480F86542A9
:10080E00984002800DC3E54395497480F86542987F
:10081E005012D2957F017E001209FCC2957F017E97
:10082E00001209FCE545154570021544D3E54594C3
:09083E0000E5446480948050BD83
:01084700228E
:040848008E428F430A
:10084C00754400754531D3E54395487480F865428D
:10085C00984002800DC3E54395497480F865429831
:10086C005012D2957F067E001209FCC2957F067E3F
:10087C00001209FCE545154570021544D3E5459475
:09088C0000E5446480948050BD35
:010895002240
:0300000002068471
:0C068400787FE4F6D8FD7581490206CBB2
:10022F00BB010CE58229F582E5833AF583E0225084
:10023F0006E92582F8E622BBFE06E92582F8E222CE
:0D024F00E58229F582E5833AF583E49322E8
:10025C00F8BB010DE58229F582E5833AF583E8F0D8
:10026C00225006E92582C8F622BBFE05E92582C884
:02027C00F2226C
:10027E00BC000BBE0029EF8DF084FFADF022E4CC64
:10028E00F875F008EF2FFFEE33FEEC33FCEE9DEC2D
:10029E00984005FCEE9DFE0FD5F0E9E4CEFD22ED73
:1002AE00F8F5F0EE8420D21CFEADF075F008EF2FBD
:1002BE00FFED33FD4007985006D5F0F222C398FDAE
:0502CE000FD5F0EA224B
:1002D300BB010A89828A83E0F5F0A3E022500687F6
:1002E300F009E71922BBFE07E3F5F009E3192289B8
:0B02F300828A83E493F5F074019322EB
:1002FE00BB010789828A830203E6500B09C5F027EA
:10030E00F7C5F01937F722BBFE0D09F8E325F0F318
:10031E00C5F019E338F322F889828A837401932594
:08032E00F0C5F0F8E493382259
:10033600BB010A89828A83F0E5F0A3F0225006F712
:0F03460009A7F01922BBFE06F3E5F009F319220F
:10035500E88FF0A4CC8BF0A42CFCE98EF0A42CFC47
:100365008AF0EDA42CFCEA8EF0A4CDA8F08BF0A4C5
:100375002DCC3825F0FDE98FF0A42CCD35F0FCEB24
:100385008EF0A4FEA9F0EB8FF0A4CFC5F02ECD39E9
:0F039500FEE43CFCEAA42DCE35F0FDE43CFC2256
:0C03A400ECF0A3EDF0A3EEF0A3EFF022CC
:1003B000BB010DE58229F582E5833AF58302040548
:1003C0005007E92582F80203FCBBFE07E92582F805
:1003D00002040EE58229F582E5833AF583020417CB
:0603E0008A838982E473A8
:100690000205C0E493A3F8E493A34003F68001F2BB
:1006A00008DFF48029E493A3F85407240CC8C3336B
:1006B000C4540F4420C8834004F456800146F6DF3A
:1006C000E4800B0102040810204080900910E47EB1
:1006D000019360BCA3FF543F30E509541FFEE4932F
:1006E000A360010ECF54C025E060A840B8E493A3F6
:1006F000FAE493A3F8E493A3C8C582C8CAC583CA21
:10070000F0A3C8C582C8CAC583CADFE9DEE780BED8
:01093F0000B7
:1003E600C5F0F8A3E028F0C5F0F8E58215827002A2
:0603F6001583E038F0223F
:0903FC00E6FB08E6FA08E6F92226
:09040500E0FBA3E0FAA3E0F922F8
:09040E00E2FB08E2FA08E2F9221F
:0C041700E493FB740193FA740293F92241
:00000001FF
